:0C800000F8B500BFF8BC08BC9E467047F5
:10800C00024B13B1024800F045BE7047000000005F
:10801C00CD8C00000348044B834202D0034B03B1C8
:10802C0018477047989401009894010000000000D4
:10803C00054806490B1AD90F01EBA301491002D0D0
:10804C00034B03B1184770479894010098940100B2
:10805C000000000010B5064C237843B9FFF7DAFF97
:10806C00044B13B10448AFF300800123237010BDFF
:10807C0098940100000000005090000008B5044BDB
:10808C001BB104490448AFF30080BDE80840CFE7BA
:10809C00000000009C94010050900000A3F5803A71
:1080AC00704700BF154B002B08BF114B9D46FFF7C7
:1080BC00F5FF00218B460F461148124A121A00F0A8
:1080CC0039FE0C4B002B00D098470B4B002B00D0EB
:1080DC0098470020002104000D000B4800F0DAFD49
:1080EC0000F004FE2000290000F0ACFA00F0D8FDEE
:1080FC00000008000000000000000000000000006C
:10810C0098940100B4940100CD8C000080B483B02D
:10811C0000AF786039607B683A689A6100BF0C37B1
:10812C00BD465DF8047B704780B483B000AF7860C7
:10813C0039607B683A689A6200BF0C37BD465DF8BF
:10814C00047B704780B485B000AF7860084BDA6C64
:10815C0007497B681343CB64054BDA6C7B6813408F
:10816C00FB60FB6800BF1437BD465DF8047B7047AD
:10817C000010024080B588B000AF78600846114608
:10818C001A460346FB700B46BB7013467B7007F117
:10819C00080300221A605A609A60DA601A615A6108
:1081AC00FB78032B1AD801A252F823F0C9810000E6
:1081BC00D1810000D9810000E18100000120FFF78E
:1081CC00C1FF0CE00220FFF7BDFF08E00420FFF721
:1081DC00B9FF04E08020FFF7B5FF00E000BF7B682B
:1081EC009B88BB60BA78224913465B0013449B0002
:1081FC000B441B68FB6003233B61BA781C49134694
:10820C005B0013449B000B4408331B68BB61BA78BA
:10821C00174913465B0013449B000B441B68012B4E
:10822C000ED1BA78124913465B0013449B000B44E1
:10823C0004331B687B617B781946786800F01AF868
:10824C00BA780B4913465B0013449B000B441B6824
:10825C00022B01D1BB6AFB617B681B6807F108022A
:10826C001146184600F0B0FB00BF2037BD4680BD5C
:10827C00148F000080B582B000AF78600B46FB70A5
:10828C00FB78002B08D07B681A687B689B881946A2
:10829C001046FFF73BFF0DE0FB7883F00103DBB2E8
:1082AC00002B07D07B681A687B689B8819461046A0
:1082BC00FFF73AFF00BF0837BD4680BD80B485B0DC
:1082CC0000AF78607B6803F00703FB600C4BDB6846
:1082DC00BB60BA684FF6FF031340BB60FB681A0221
:1082EC00BB68134343F0BF6343F40033BB60044AE1
:1082FC00BB68D36000BF1437BD465DF8047B704784
:10830C0000ED00E080B400AF044BDB681B0A03F007
:10831C0007031846BD465DF8047B704700ED00E08E
:10832C0080B483B000AF03463960FB7197F9073016
:10833C00002B0ADB3B68DAB20C4997F907301201C3
:10834C00D2B20B4483F800230AE03B68DAB2084946
:10835C00FB7903F00F03043B1201D2B20B441A76E3
:10836C0000BF0C37BD465DF8047B704700E100E0B0
:10837C0000ED00E080B489B000AFF860B9607A60BD
:10838C00FB6803F00703FB61FB69C3F10703042BD4
:10839C0028BF0423BB61FB690433062B02D9FB699C
:1083AC00033B00E000237B614FF0FF32BB6902FA14
:1083BC0003F3DA43BB681A407B699A404FF0FF31F4
:1083CC007B6901FA03F3D9437B680B4013431846CE
:1083DC002437BD465DF8047B7047000080B400AFC5
:1083EC00054B1B68044A43F00103136000BFBD46F4
:1083FC005DF8047B704700BF0010024080B400AFF2
:10840C00064B1B6803F00203022B01D1012300E091
:10841C0000231846BD465DF8047B704700100240EF
:10842C0080B400AF054B1B68044A43F0080313608B
:10843C0000BFBD465DF8047B704700BF00100240D2
:10844C0080B483B000AF7860064B1B6823F0F00259
:10845C0004497B6813430B6000BF0C37BD465DF8C5
:10846C00047B70470010024080B483B000AF78608A
:10847C00074B5B6823F47F427B681B020449134360
:10848C004B6000BF0C37BD465DF8047B704700BFE6
:10849C000010024080B483B000AF7860064B9B683C
:1084AC0023F0030204497B6813438B6000BF0C3735
:1084BC00BD465DF8047B70470010024080B400AFED
:1084CC00044B9B6803F00C031846BD465DF8047B17
:1084DC00704700BF0010024080B483B000AF7860DA
:1084EC00064B9B6823F0F00204497B6813438B60B6
:1084FC0000BF0C37BD465DF8047B7047001002408E
:10850C0080B483B000AF7860064B9B6823F4E062C4
:10851C0004497B6813438B6000BF0C37BD465DF884
:10852C00047B70470010024080B483B000AF7860C9
:10853C00064B9B6823F4605204497B6813438B60A1
:10854C0000BF0C37BD465DF8047B7047001002403D
:10855C0080B485B000AF7860084B9A6D07497B6892
:10856C0013438B65054B9A6D7B681340FB60FB686E
:10857C0000BF1437BD465DF8047B70470010024005
:10858C0080B485B000AF7860084B1A6E07497B68E1
:10859C0013430B66054B1A6E7B681340FB60FB683C
:1085AC0000BF1437BD465DF8047B704700100240D5
:1085BC0080B483B000AF7860064B1B6823F00702D1
:1085CC0004497B6813430B6000BF0C37BD465DF854
:1085DC00047B70470020024080B400AF044B1B6842
:1085EC0003F007031846BD465DF8047B704700BFD7
:1085FC000020024080B483B000AF7860064B1B684B
:10860C0023F4C06204497B6813430B6000BF0C3732
:10861C00BD465DF8047B70470070004080B400AF2D
:10862C00074B5B6903F48063B3F5806F01D10123C1
:10863C0000E000231846BD465DF8047B704700BF80
:10864C000070004080B584B002AF0120FFF798FFA6
:10865C004FF08050FFF77CFF0320FFF72FFEFFF752
:10866C0051FE034600220F211846FFF783FE0346F6
:10867C0019464FF0FF30FFF753FE00F00DF8054B95
:10868C007B60012300930023002201217868FFF70F
:10869C0071FDFEE70004004880B500AF0020FFF735
:1086AC0087FF00BFFFF798FF0346002BFAD14FF46A
:1086BC000070FFF79FFF00BFFFF7B0FF0346002BD2
:1086CC00FAD1FFF78BFE00BFFFF798FE0346012B94
:1086DC00FAD1FFF7A5FE6020FFF7B2FE0020FFF7EE
:1086EC00C3FE0020FFF7D6FE00BFFFF7E7FE0346F0
:1086FC00002BFAD10020FFF7EFFE0020FFF700FF60
:10870C000020FFF711FF044800F0A6FA024800F021
:10871C00B1FA00BF80BD00BF00093D0080B483B03A
:10872C0000AF7860396000BF0C37BD465DF8047B44
:10873C00704780B48BB000AFF860B9607A60FB68AA
:10874C001A68BB687B617B6993FAA3F33B613B6955
:10875C00BB61BB69002B01D1202303E0BB69B3FAD9
:10876C0083F3DBB25B00032101FA03F3DB431A4012
:10877C00BB683B623B6A93FAA3F3FB61FB697B62C8
:10878C007B6A002B01D1202303E07B6AB3FA83F3CD
:10879C00DBB25B00796801FA03F31A43FB681A60D9
:1087AC0000BF2C37BD465DF8047B704780B485B0A4
:1087BC0000AFF860B9607A60FB685A68BB68DB434D
:1087CC001A40BB68796801FB03F31A43FB685A60D3
:1087DC0000BF1437BD465DF8047B704780B48BB086
:1087EC0000AFF860B9607A60FB689A68BB687B611F
:1087FC007B6993FAA3F33B613B69BB61BB69002BBB
:10880C0001D1202303E0BB69B3FA83F3DBB25B0035
:10881C00032101FA03F3DB431A40BB683B623B6A5A
:10882C0093FAA3F3FB61FB697B627B6A002B01D19A
:10883C00202303E07B6AB3FA83F3DBB25B00796835
:10884C0001FA03F31A43FB689A6000BF2C37BD464C
:10885C005DF8047B704780B48BB000AFF860B960F2
:10886C007A60FB68DA68BB687B617B6993FAA3F377
:10887C003B613B69BB61BB69002B01D1202303E049
:10888C00BB69B3FA83F3DBB25B00032101FA03F398
:10889C00DB431A40BB683B623B6A93FAA3F3FB6170
:1088AC00FB697B627B6A002B01D1202303E07B6A8E
:1088BC00B3FA83F3DBB25B00796801FA03F31A4372
:1088CC00FB68DA6000BF2C37BD465DF8047B70474F
:1088DC0080B48BB000AFF860B9607A60FB681A6A3C
:1088EC00BB687B617B6993FAA3F33B613B69BB611A
:1088FC00BB69002B01D1202303E0BB69B3FA83F3DE
:10890C00DBB29B000F2101FA03F3DB431A40BB6877
:10891C003B623B6A93FAA3F3FB61FB697B627B6A64
:10892C00002B01D1202303E07B6AB3FA83F3DBB283
:10893C009B00796801FA03F31A43FB681A6200BFC3
:10894C002C37BD465DF8047B704780B48BB000AF0C
:10895C00F860B9607A60FB685A6ABB681B0A7B6175
:10896C007B6993FAA3F33B613B69BB61BB69002B49
:10897C0001D1202303E0BB69B3FA83F3DBB29B0084
:10898C000F2101FA03F3DB431A40BB681B0A3B625D
:10899C003B6A93FAA3F3FB61FB697B627B6A002B56
:1089AC0001D1202303E07B6AB3FA83F3DBB29B0093
:1089BC00796801FA03F31A43FB685A6200BF2C373B
:1089CC00BD465DF8047B704780B588B000AF786019
:1089DC0039607B68B3F1904F17D07B688B4A934218
:1089EC0013D07B688A4A93420FD07B68894A9342A2
:1089FC000BD07B68884A934207D07B68874A9342A6
:108A0C0003D0C4218648FFF789FE3B681B68002B06
:108A1C0004D03B681B68B3F5803F03D3C521804865
:108A2C00FFF77CFE3B685B68002B0FD03B685B68F4
:108A3C00012B0BD03B685B68022B07D03B685B6853
:108A4C00032B03D0C6217648FFF768FE3B681B69F1
:108A5C00002B0BD03B681B69012B07D03B681B69B3
:108A6C00022B03D0C7216E48FFF758FE3B681B68EA
:108A7C003B613B6993FAA3F3FB60FB687B617B6909
:108A8C00002B01D1202303E07B69B3FA83F3DBB223
:108A9C00FB61ADE03B681A680121FB6901FA03F345
:108AAC001340BB61BB69002B00F09F803B685B6887
:108ABC00012B03D03B685B68022B2ED13B689B6873
:108ACC00002B0FD03B689B68012B0BD03B689B683D
:108ADC00022B07D03B689B68032B03D0D82150484E
:108AEC00FFF71CFE3B689B681A46B9697868FFF76C
:108AFC0075FE3B68DB68002B07D03B68DB68012BFD
:108B0C0003D0DE214648FFF709FE3B6819683B6835
:108B1C00DB681A467868FFF749FE3B681B691A4602
:108B2C00B9697868FFF797FE3B685B68022B55D1F3
:108B3C003B685B69002B3FD03B685B69012B3BD0EA
:108B4C003B685B69022B37D03B685B69032B33D0E6
:108B5C003B685B69042B2FD03B685B69052B2BD0E2
:108B6C003B685B69062B27D03B685B69072B23D0DE
:108B7C003B685B69082B1FD03B685B69092B1BD0DA
:108B8C003B685B690A2B17D03B685B690B2B13D0D6
:108B9C003B685B690C2B0FD03B685B690D2B0BD0D2
:108BAC003B685B690E2B07D03B685B690F2B03D0CE
:108BBC00EA211B48FFF7B2FDBB69FF2B07D83B68C6
:108BCC005B691A46B9697868FFF782FE06E03B6874
:108BDC005B691A46B9697868FFF7B7FE3B685B6852
:108BEC001A46B9697868FFF7A4FDFB690133FB618C
:108BFC003B681A68FB6922FA03F3002B7FF44AAF37
:108C0C00002318462037BD4680BD00BF0004004835
:108C1C0000080048000C004800100048001C0048E8
:108C2C00D48F000080B483B000AF786039607A686C
:108C3C003B68B2FBF3F3074A013B5360054B002240
:108C4C009A60044B05221A6000BF0C37BD465DF8D4
:108C5C00047B704710E000E080B582B000AF786014
:108C6C004FF47A717868FFF7DDFF00BF0837BD4617
:108C7C0080BD000080B483B000AF7860044A7B688C
:108C8C00136000BF0C37BD465DF8047B704700BF16
:108C9C0060900100002301461A46184600F09CB86B
:108CAC0008B50021044600F0CBF8044B1868C36BE0
:108CBC0003B19847204600F01FF900BF4490000014
:108CCC0038B5084B084D5B1B9C1007D0043B1D446A
:108CDC00013C55F804399847002CF9D1BDE83840CF
:108CEC0000F00CB9609001005C90010070B50D4E65
:108CFC000D4D761BB61006D0002455F8043B0134FC
:108D0C009847A642F9D1094E094D761BFFF772F927
:108D1C00B61006D0002455F8043B01349847A642FF
:108D2C00F9D170BD54900100549001005C90010089
:108D3C0054900100830730B548D0541E002A3FD010
:108D4C00CAB2034601E0013C3AD303F8012B9D075C
:108D5C00F9D1032C2DD9CDB245EA05250F2C45EAC6
:108D6C00054536D9A4F1100222F00F0C03F1200EA8
:108D7C00E6444FEA121C03F1100242E9045542E9A1
:108D8C00025510327245F8D10CF1010214F00C0F9F
:108D9C0003EB021204F00F0C13D0ACF1040323F01C
:108DAC0003030433134442F8045B9342FBD10CF0ED
:108DBC0003042CB1CAB21C4403F8012B9C42FBD116
:108DCC0030BD64461346002CF4D1F9E70346144633
:108DDC00BFE71A46A446E0E770B4184C2568D5F8EE
:108DEC0048411CB365681F2D25DC38B9AB1C013517
:108DFC00656044F82310002070BC704704EB850CB0
:108E0C000228CCF88820D4F888614FF0010202FACD
:108E1C0005F246EA0206C4F88861CCF80831E5D1BF
:108E2C00D4F88C311343C4F88C31DFE705F5A67404
:108E3C00C5F84841D6E74FF0FF30DDE7449000001D
:108E4C002DE9F84F2B4B1F68D7F848612DED028B9D
:108E5C00C6B108EE100A8B464FF001084FF000091E
:108E6C007468651E0ED4013406EB8404BBF1000F4C
:108E7C000CD0D4F800315B4508D0013D6B1CA4F13B
:108E8C000404F3D1BDEC028BBDE8F88F7368226843
:108E9C00013BAB420CBF7560C4F80090002AECD0CB
:108EAC00D6F88801D6F804A008FA05F101420BD1D6
:108EBC0090477268524513D1D7F84831B342DCD091
:108ECC001E46002ECCD1DDE7D6F88C0101420CD128
:108EDC00D4F8801018EE100A904772685245EBD007
:108EEC00D7F84861002EBBD1CCE7D4F8800090476E
:0C8EFC00DFE700BF44900000FEE700BF6D
:0C8F0800F8B500BFF8BC08BC9E467047DE
:108F1400000000000000000000000000000000004D
:108F2400000000000100000000000000000000003C
:108F34000200000003000000000000000000000028
:108F4400010000000100000000000000010000001A
:108F54000100000001000000010000000100000009
:108F640002000000010000000000000000000000FA
:108F740001000000000000000100000001000000EA
:108F840000000000020000000200000001000000D8
:108F940000000000020000000100000001000000C9
:108FA40002000000010000000200000002000000B6
:108FB40000000000000000000200000000000000AB
:108FC4000100000002000000000000000200000098
:108FD4002F686F6D652F65676F722F446F63756DB2
:108FE400656E74732F6171626D313030306C6C2F2B
:108FF40053544D3332437562655F46575F4C345F5B
:1090040056312E31382E302F447269766572732FA3
:1090140053544D33324C3478785F48414C5F44723A
:10902400697665722F5372632F73746D33326C34A7
:1090340078785F6C6C5F6770696F2E630000000066
:049044007090010027
:0890480060F0FF7F0100000051
:04905000000000001C
:020000021000EC
:089054000D800000898000007E
:04905C00618000002F
:1090600000093D00000000007090010000000000B9
:10907000000000005C930100C49301002C940100E7
:1090800000000000000000000000000000000000E0
:1090900000000000000000000000000000000000D0
:1090A00000000000000000000000000000000000C0
:1090B00000000000000000000000000000000000B0
:1090C00000000000000000000000000000000000A0
:1090D0000000000000000000000000000000000090
:1090E0000000000000000000000000000000000080
:1090F0000000000000000000000000000000000070
:10910000000000000000000000000000000000005F
:10911000000000000000000001000000000000004E
:109120000E33CDAB34126DE6ECDE05000B00000013
:10913000000000000000000000000000000000002F
:10914000000000000000000000000000000000001F
:10915000000000000000000000000000000000000F
:1091600000000000000000000000000000000000FF
:04000003000080B1C8
:00000001FF
